{
  "contractName": "FoodVendor",
  "abi": [
    {
      "inputs": [
        {
          "internalType": "address",
          "name": "_foodvendortoken",
          "type": "address"
        }
      ],
      "stateMutability": "nonpayable",
      "type": "constructor"
    },
    {
      "anonymous": false,
      "inputs": [
        {
          "indexed": true,
          "internalType": "address",
          "name": "previousOwner",
          "type": "address"
        },
        {
          "indexed": true,
          "internalType": "address",
          "name": "newOwner",
          "type": "address"
        }
      ],
      "name": "OwnershipTransferred",
      "type": "event"
    },
    {
      "anonymous": false,
      "inputs": [
        {
          "indexed": false,
          "internalType": "address",
          "name": "buyer",
          "type": "address"
        },
        {
          "indexed": false,
          "internalType": "address",
          "name": "foodvendortoken",
          "type": "address"
        },
        {
          "indexed": false,
          "internalType": "uint256",
          "name": "amount",
          "type": "uint256"
        },
        {
          "indexed": false,
          "internalType": "uint256",
          "name": "rate",
          "type": "uint256"
        }
      ],
      "name": "TokensPurchased",
      "type": "event"
    },
    {
      "anonymous": false,
      "inputs": [
        {
          "indexed": false,
          "internalType": "uint256",
          "name": "id",
          "type": "uint256"
        },
        {
          "indexed": false,
          "internalType": "string",
          "name": "name",
          "type": "string"
        },
        {
          "indexed": false,
          "internalType": "uint256",
          "name": "price",
          "type": "uint256"
        },
        {
          "indexed": false,
          "internalType": "address",
          "name": "owner",
          "type": "address"
        },
        {
          "indexed": false,
          "internalType": "bool",
          "name": "purchased",
          "type": "bool"
        }
      ],
      "name": "foodCreated",
      "type": "event"
    },
    {
      "anonymous": false,
      "inputs": [
        {
          "indexed": false,
          "internalType": "uint256",
          "name": "id",
          "type": "uint256"
        },
        {
          "indexed": false,
          "internalType": "string",
          "name": "name",
          "type": "string"
        },
        {
          "indexed": false,
          "internalType": "uint256",
          "name": "price",
          "type": "uint256"
        },
        {
          "indexed": false,
          "internalType": "address payable",
          "name": "owner",
          "type": "address"
        },
        {
          "indexed": false,
          "internalType": "address",
          "name": "buyer",
          "type": "address"
        },
        {
          "indexed": false,
          "internalType": "bool",
          "name": "purchased",
          "type": "bool"
        }
      ],
      "name": "foodPurchased",
      "type": "event"
    },
    {
      "inputs": [],
      "name": "foodCount",
      "outputs": [
        {
          "internalType": "uint256",
          "name": "",
          "type": "uint256"
        }
      ],
      "stateMutability": "view",
      "type": "function"
    },
    {
      "inputs": [
        {
          "internalType": "uint256",
          "name": "",
          "type": "uint256"
        }
      ],
      "name": "foods",
      "outputs": [
        {
          "internalType": "uint256",
          "name": "id",
          "type": "uint256"
        },
        {
          "internalType": "string",
          "name": "name",
          "type": "string"
        },
        {
          "internalType": "uint256",
          "name": "price",
          "type": "uint256"
        },
        {
          "internalType": "address payable",
          "name": "owner",
          "type": "address"
        },
        {
          "internalType": "address",
          "name": "buyer",
          "type": "address"
        },
        {
          "internalType": "bool",
          "name": "purchased",
          "type": "bool"
        }
      ],
      "stateMutability": "view",
      "type": "function"
    },
    {
      "inputs": [],
      "name": "foodvendortoken",
      "outputs": [
        {
          "internalType": "contract ERC20",
          "name": "",
          "type": "address"
        }
      ],
      "stateMutability": "view",
      "type": "function"
    },
    {
      "inputs": [],
      "name": "owner",
      "outputs": [
        {
          "internalType": "address",
          "name": "",
          "type": "address"
        }
      ],
      "stateMutability": "view",
      "type": "function"
    },
    {
      "inputs": [],
      "name": "rate",
      "outputs": [
        {
          "internalType": "uint256",
          "name": "",
          "type": "uint256"
        }
      ],
      "stateMutability": "view",
      "type": "function"
    },
    {
      "inputs": [],
      "name": "renounceOwnership",
      "outputs": [],
      "stateMutability": "nonpayable",
      "type": "function"
    },
    {
      "inputs": [
        {
          "internalType": "address",
          "name": "newOwner",
          "type": "address"
        }
      ],
      "name": "transferOwnership",
      "outputs": [],
      "stateMutability": "nonpayable",
      "type": "function"
    },
    {
      "inputs": [],
      "name": "buyTokens",
      "outputs": [],
      "stateMutability": "payable",
      "type": "function"
    },
    {
      "inputs": [
        {
          "internalType": "string",
          "name": "_name",
          "type": "string"
        },
        {
          "internalType": "uint256",
          "name": "_price",
          "type": "uint256"
        },
        {
          "internalType": "uint256",
          "name": "_qty",
          "type": "uint256"
        }
      ],
      "name": "createFood",
      "outputs": [],
      "stateMutability": "nonpayable",
      "type": "function"
    },
    {
      "inputs": [
        {
          "internalType": "uint256",
          "name": "_id",
          "type": "uint256"
        }
      ],
      "name": "purchaseFood",
      "outputs": [],
      "stateMutability": "payable",
      "type": "function"
    },
    {
      "inputs": [
        {
          "internalType": "uint256",
          "name": "_id",
          "type": "uint256"
        }
      ],
      "name": "removeFood",
      "outputs": [
        {
          "internalType": "bool",
          "name": "",
          "type": "bool"
        }
      ],
      "stateMutability": "nonpayable",
      "type": "function"
    },
    {
      "inputs": [
        {
          "internalType": "uint256",
          "name": "_id",
          "type": "uint256"
        }
      ],
      "name": "checkFoodStatus",
      "outputs": [
        {
          "internalType": "bool",
          "name": "",
          "type": "bool"
        }
      ],
      "stateMutability": "view",
      "type": "function"
    },
    {
      "inputs": [
        {
          "internalType": "uint256",
          "name": "_id",
          "type": "uint256"
        }
      ],
      "name": "getFoodInfo",
      "outputs": [
        {
          "internalType": "uint256",
          "name": "",
          "type": "uint256"
        },
        {
          "internalType": "string",
          "name": "",
          "type": "string"
        },
        {
          "internalType": "uint256",
          "name": "",
          "type": "uint256"
        }
      ],
      "stateMutability": "view",
      "type": "function"
    },
    {
      "inputs": [],
      "name": "withdraw",
      "outputs": [],
      "stateMutability": "nonpayable",
      "type": "function"
    }
  ],
  "bytecode": "0x6080604052600060015560646002553480156200001b57600080fd5b506040516200264c3803806200264c8339818101604052810190620000419190620001df565b6200006162000055620000a960201b60201c565b620000b160201b60201c565b80600360006101000a81548173ffffffffffffffffffffffffffffffffffffffff021916908373ffffffffffffffffffffffffffffffffffffffff1602179055505062000211565b600033905090565b60008060009054906101000a900473ffffffffffffffffffffffffffffffffffffffff169050816000806101000a81548173ffffffffffffffffffffffffffffffffffffffff021916908373ffffffffffffffffffffffffffffffffffffffff1602179055508173ffffffffffffffffffffffffffffffffffffffff168173ffffffffffffffffffffffffffffffffffffffff167f8be0079c531659141344cd1fd0a4f28419497f9722a3daafe3b4186f6b6457e060405160405180910390a35050565b600080fd5b600073ffffffffffffffffffffffffffffffffffffffff82169050919050565b6000620001a7826200017a565b9050919050565b620001b9816200019a565b8114620001c557600080fd5b50565b600081519050620001d981620001ae565b92915050565b600060208284031215620001f857620001f762000175565b5b60006200020884828501620001c8565b91505092915050565b61242b80620002216000396000f3fe6080604052600436106100dd5760003560e01c806377208d2c1161007f578063b08f258b11610059578063b08f258b146102b5578063d0febe4c146102d1578063e95f4dbf146102db578063f2fde38b14610306576100dd565b806377208d2c146102105780638da5cb5b1461024d5780639054784c14610278576100dd565b80633ccfd60b116100bb5780633ccfd60b1461018e5780636968411b146101a5578063715018a6146101d057806371acea02146101e7576100dd565b80630a8eb8bc146100e257806314d3f10e146101215780632c4e722e14610163575b600080fd5b3480156100ee57600080fd5b50610109600480360381019061010491906118dd565b61032f565b604051610118939291906119b2565b60405180910390f35b34801561012d57600080fd5b50610148600480360381019061014391906118dd565b6104e0565b60405161015a96959493929190611a6d565b60405180910390f35b34801561016f57600080fd5b506101786105f1565b6040516101859190611ad5565b60405180910390f35b34801561019a57600080fd5b506101a36105f7565b005b3480156101b157600080fd5b506101ba61076b565b6040516101c79190611ad5565b60405180910390f35b3480156101dc57600080fd5b506101e5610771565b005b3480156101f357600080fd5b5061020e60048036038101906102099190611c25565b6107f9565b005b34801561021c57600080fd5b50610237600480360381019061023291906118dd565b610a0c565b6040516102449190611c94565b60405180910390f35b34801561025957600080fd5b50610262610ce2565b60405161026f9190611caf565b60405180910390f35b34801561028457600080fd5b5061029f600480360381019061029a91906118dd565b610d0b565b6040516102ac9190611c94565b60405180910390f35b6102cf60048036038101906102ca91906118dd565b610ea8565b005b6102d9611407565b005b3480156102e757600080fd5b506102f06115c6565b6040516102fd9190611d29565b60405180910390f35b34801561031257600080fd5b5061032d60048036038101906103289190611d70565b6115ec565b005b60006060600080600460008681526020019081526020016000206040518060c00160405290816000820154815260200160018201805461036e90611dcc565b80601f016020809104026020016040519081016040528092919081815260200182805461039a90611dcc565b80156103e75780601f106103bc576101008083540402835291602001916103e7565b820191906000526020600020905b8154815290600101906020018083116103ca57829003601f168201915b50505050508152602001600282015481526020016003820160009054906101000a900473ffffffffffffffffffffffffffffffffffffffff1673ffffffffffffffffffffffffffffffffffffffff1673ffffffffffffffffffffffffffffffffffffffff1681526020016004820160009054906101000a900473ffffffffffffffffffffffffffffffffffffffff1673ffffffffffffffffffffffffffffffffffffffff1673ffffffffffffffffffffffffffffffffffffffff1681526020016004820160149054906101000a900460ff1615151515815250509050806000015181602001518260400151935093509350509193909250565b600460205280600052604060002060009150905080600001549080600101805461050990611dcc565b80601f016020809104026020016040519081016040528092919081815260200182805461053590611dcc565b80156105825780601f1061055757610100808354040283529160200191610582565b820191906000526020600020905b81548152906001019060200180831161056557829003601f168201915b5050505050908060020154908060030160009054906101000a900473ffffffffffffffffffffffffffffffffffffffff16908060040160009054906101000a900473ffffffffffffffffffffffffffffffffffffffff16908060040160149054906101000a900460ff16905086565b60025481565b6105ff6116e4565b73ffffffffffffffffffffffffffffffffffffffff1661061d610ce2565b73ffffffffffffffffffffffffffffffffffffffff1614610673576040517f08c379a000000000000000000000000000000000000000000000000000000000815260040161066a90611e4a565b60405180910390fd5b6000479050600081116106bb576040517f08c379a00000000000000000000000000000000000000000000000000000000081526004016106b290611edc565b60405180910390fd5b60003373ffffffffffffffffffffffffffffffffffffffff16476040516106e190611f2d565b60006040518083038185875af1925050503d806000811461071e576040519150601f19603f3d011682016040523d82523d6000602084013e610723565b606091505b5050905080610767576040517f08c379a000000000000000000000000000000000000000000000000000000000815260040161075e90611fb4565b60405180910390fd5b5050565b60015481565b6107796116e4565b73ffffffffffffffffffffffffffffffffffffffff16610797610ce2565b73ffffffffffffffffffffffffffffffffffffffff16146107ed576040517f08c379a00000000000000000000000000000000000000000000000000000000081526004016107e490611e4a565b60405180910390fd5b6107f760006116ec565b565b6108016116e4565b73ffffffffffffffffffffffffffffffffffffffff1661081f610ce2565b73ffffffffffffffffffffffffffffffffffffffff1614610875576040517f08c379a000000000000000000000000000000000000000000000000000000000815260040161086c90611e4a565b60405180910390fd5b600083511161088357600080fd5b6000821161089057600080fd5b6000811161089d57600080fd5b60005b81811015610a0657600160008154809291906108bb90612003565b91905055506001546004600060015481526020019081526020016000206000018190555083600460006001548152602001908152602001600020600101908051906020019061090b9291906117b0565b5082600460006001548152602001908152602001600020600201819055503360046000600154815260200190815260200160002060030160006101000a81548173ffffffffffffffffffffffffffffffffffffffff021916908373ffffffffffffffffffffffffffffffffffffffff160217905550600060046000600154815260200190815260200160002060040160146101000a81548160ff0219169083151502179055507f89b74cdb49a8dc63b7934fd206ddbb27da4334bc8d696790f76f634d8936654760015485853360006040516109eb95949392919061204c565b60405180910390a180806109fe90612003565b9150506108a0565b50505050565b6000610a166116e4565b73ffffffffffffffffffffffffffffffffffffffff16610a34610ce2565b73ffffffffffffffffffffffffffffffffffffffff1614610a8a576040517f08c379a0000000000000000000000000000000000000000000000000000000008152600401610a8190611e4a565b60405180910390fd5b6000600460008481526020019081526020016000206040518060c001604052908160008201548152602001600182018054610ac490611dcc565b80601f0160208091040260200160405190810160405280929190818152602001828054610af090611dcc565b8015610b3d5780601f10610b1257610100808354040283529160200191610b3d565b820191906000526020600020905b815481529060010190602001808311610b2057829003601f168201915b50505050508152602001600282015481526020016003820160009054906101000a900473ffffffffffffffffffffffffffffffffffffffff1673ffffffffffffffffffffffffffffffffffffffff1673ffffffffffffffffffffffffffffffffffffffff1681526020016004820160009054906101000a900473ffffffffffffffffffffffffffffffffffffffff1673ffffffffffffffffffffffffffffffffffffffff1673ffffffffffffffffffffffffffffffffffffffff1681526020016004820160149054906101000a900460ff16151515158152505090508060a0015115610c2857600080fd5b60046000848152602001908152602001600020600080820160009055600182016000610c549190611836565b60028201600090556003820160006101000a81549073ffffffffffffffffffffffffffffffffffffffff02191690556004820160006101000a81549073ffffffffffffffffffffffffffffffffffffffff02191690556004820160146101000a81549060ff0219169055505060016000815480929190610cd3906120a6565b91905055506001915050919050565b60008060009054906101000a900473ffffffffffffffffffffffffffffffffffffffff16905090565b600080600460008481526020019081526020016000206040518060c001604052908160008201548152602001600182018054610d4690611dcc565b80601f0160208091040260200160405190810160405280929190818152602001828054610d7290611dcc565b8015610dbf5780601f10610d9457610100808354040283529160200191610dbf565b820191906000526020600020905b815481529060010190602001808311610da257829003601f168201915b50505050508152602001600282015481526020016003820160009054906101000a900473ffffffffffffffffffffffffffffffffffffffff1673ffffffffffffffffffffffffffffffffffffffff1673ffffffffffffffffffffffffffffffffffffffff1681526020016004820160009054906101000a900473ffffffffffffffffffffffffffffffffffffffff1673ffffffffffffffffffffffffffffffffffffffff1673ffffffffffffffffffffffffffffffffffffffff1681526020016004820160149054906101000a900460ff16151515158152505090508060a00151915050919050565b6000600460008381526020019081526020016000206040518060c001604052908160008201548152602001600182018054610ee290611dcc565b80601f0160208091040260200160405190810160405280929190818152602001828054610f0e90611dcc565b8015610f5b5780601f10610f3057610100808354040283529160200191610f5b565b820191906000526020600020905b815481529060010190602001808311610f3e57829003601f168201915b50505050508152602001600282015481526020016003820160009054906101000a900473ffffffffffffffffffffffffffffffffffffffff1673ffffffffffffffffffffffffffffffffffffffff1673ffffffffffffffffffffffffffffffffffffffff1681526020016004820160009054906101000a900473ffffffffffffffffffffffffffffffffffffffff1673ffffffffffffffffffffffffffffffffffffffff1673ffffffffffffffffffffffffffffffffffffffff1681526020016004820160149054906101000a900460ff1615151515815250509050600081600001511180156110515750600154816000015111155b61105a57600080fd5b8060400151600360009054906101000a900473ffffffffffffffffffffffffffffffffffffffff1673ffffffffffffffffffffffffffffffffffffffff166370a08231336040518263ffffffff1660e01b81526004016110ba9190611caf565b602060405180830381865afa1580156110d7573d6000803e3d6000fd5b505050506040513d601f19601f820116820180604052508101906110fb91906120e5565b1161113b576040517f08c379a00000000000000000000000000000000000000000000000000000000081526004016111329061215e565b60405180910390fd5b8060a001511561114a57600080fd5b33816080019073ffffffffffffffffffffffffffffffffffffffff16908173ffffffffffffffffffffffffffffffffffffffff1681525050806080015173ffffffffffffffffffffffffffffffffffffffff16816060015173ffffffffffffffffffffffffffffffffffffffff1614156111c357600080fd5b60018160a0019015159081151581525050806004600084815260200190815260200160002060008201518160000155602082015181600101908051906020019061120e9291906117b0565b506040820151816002015560608201518160030160006101000a81548173ffffffffffffffffffffffffffffffffffffffff021916908373ffffffffffffffffffffffffffffffffffffffff16021790555060808201518160040160006101000a81548173ffffffffffffffffffffffffffffffffffffffff021916908373ffffffffffffffffffffffffffffffffffffffff16021790555060a08201518160040160146101000a81548160ff021916908315150217905550905050600360009054906101000a900473ffffffffffffffffffffffffffffffffffffffff1673ffffffffffffffffffffffffffffffffffffffff166323b872dd33836060015184604001516040518463ffffffff1660e01b81526004016113319392919061219f565b6020604051808303816000875af1158015611350573d6000803e3d6000fd5b505050506040513d601f19601f820116820180604052508101906113749190612202565b6113b3576040517f08c379a00000000000000000000000000000000000000000000000000000000081526004016113aa9061227b565b60405180910390fd5b7f0d886fcedfff2dd0e2bd70de505c33ad878d6d070a86d180797b930af7c1173b6001548260200151836040015184606001513360016040516113fb96959493929190611a6d565b60405180910390a15050565b600060025434611417919061229b565b905080600360009054906101000a900473ffffffffffffffffffffffffffffffffffffffff1673ffffffffffffffffffffffffffffffffffffffff166370a08231306040518263ffffffff1660e01b81526004016114759190611caf565b602060405180830381865afa158015611492573d6000803e3d6000fd5b505050506040513d601f19601f820116820180604052508101906114b691906120e5565b10156114c157600080fd5b600360009054906101000a900473ffffffffffffffffffffffffffffffffffffffff1673ffffffffffffffffffffffffffffffffffffffff1663a9059cbb33836040518363ffffffff1660e01b815260040161151e9291906122f5565b6020604051808303816000875af115801561153d573d6000803e3d6000fd5b505050506040513d601f19601f820116820180604052508101906115619190612202565b507f6faf93231a456e552dbc9961f58d9713ee4f2e69d15f1975b050ef0911053a7b33600360009054906101000a900473ffffffffffffffffffffffffffffffffffffffff16836002546040516115bb949392919061231e565b60405180910390a150565b600360009054906101000a900473ffffffffffffffffffffffffffffffffffffffff1681565b6115f46116e4565b73ffffffffffffffffffffffffffffffffffffffff16611612610ce2565b73ffffffffffffffffffffffffffffffffffffffff1614611668576040517f08c379a000000000000000000000000000000000000000000000000000000000815260040161165f90611e4a565b60405180910390fd5b600073ffffffffffffffffffffffffffffffffffffffff168173ffffffffffffffffffffffffffffffffffffffff1614156116d8576040517f08c379a00000000000000000000000000000000000000000000000000000000081526004016116cf906123d5565b60405180910390fd5b6116e1816116ec565b50565b600033905090565b60008060009054906101000a900473ffffffffffffffffffffffffffffffffffffffff169050816000806101000a81548173ffffffffffffffffffffffffffffffffffffffff021916908373ffffffffffffffffffffffffffffffffffffffff1602179055508173ffffffffffffffffffffffffffffffffffffffff168173ffffffffffffffffffffffffffffffffffffffff167f8be0079c531659141344cd1fd0a4f28419497f9722a3daafe3b4186f6b6457e060405160405180910390a35050565b8280546117bc90611dcc565b90600052602060002090601f0160209004810192826117de5760008555611825565b82601f106117f757805160ff1916838001178555611825565b82800160010185558215611825579182015b82811115611824578251825591602001919060010190611809565b5b5090506118329190611876565b5090565b50805461184290611dcc565b6000825580601f106118545750611873565b601f0160209004906000526020600020908101906118729190611876565b5b50565b5b8082111561188f576000816000905550600101611877565b5090565b6000604051905090565b600080fd5b600080fd5b6000819050919050565b6118ba816118a7565b81146118c557600080fd5b50565b6000813590506118d7816118b1565b92915050565b6000602082840312156118f3576118f261189d565b5b6000611901848285016118c8565b91505092915050565b611913816118a7565b82525050565b600081519050919050565b600082825260208201905092915050565b60005b83811015611953578082015181840152602081019050611938565b83811115611962576000848401525b50505050565b6000601f19601f8301169050919050565b600061198482611919565b61198e8185611924565b935061199e818560208601611935565b6119a781611968565b840191505092915050565b60006060820190506119c7600083018661190a565b81810360208301526119d98185611979565b90506119e8604083018461190a565b949350505050565b600073ffffffffffffffffffffffffffffffffffffffff82169050919050565b6000611a1b826119f0565b9050919050565b611a2b81611a10565b82525050565b6000611a3c826119f0565b9050919050565b611a4c81611a31565b82525050565b60008115159050919050565b611a6781611a52565b82525050565b600060c082019050611a82600083018961190a565b8181036020830152611a948188611979565b9050611aa3604083018761190a565b611ab06060830186611a22565b611abd6080830185611a43565b611aca60a0830184611a5e565b979650505050505050565b6000602082019050611aea600083018461190a565b92915050565b600080fd5b600080fd5b7f4e487b7100000000000000000000000000000000000000000000000000000000600052604160045260246000fd5b611b3282611968565b810181811067ffffffffffffffff82111715611b5157611b50611afa565b5b80604052505050565b6000611b64611893565b9050611b708282611b29565b919050565b600067ffffffffffffffff821115611b9057611b8f611afa565b5b611b9982611968565b9050602081019050919050565b82818337600083830152505050565b6000611bc8611bc384611b75565b611b5a565b905082815260208101848484011115611be457611be3611af5565b5b611bef848285611ba6565b509392505050565b600082601f830112611c0c57611c0b611af0565b5b8135611c1c848260208601611bb5565b91505092915050565b600080600060608486031215611c3e57611c3d61189d565b5b600084013567ffffffffffffffff811115611c5c57611c5b6118a2565b5b611c6886828701611bf7565b9350506020611c79868287016118c8565b9250506040611c8a868287016118c8565b9150509250925092565b6000602082019050611ca96000830184611a5e565b92915050565b6000602082019050611cc46000830184611a43565b92915050565b6000819050919050565b6000611cef611cea611ce5846119f0565b611cca565b6119f0565b9050919050565b6000611d0182611cd4565b9050919050565b6000611d1382611cf6565b9050919050565b611d2381611d08565b82525050565b6000602082019050611d3e6000830184611d1a565b92915050565b611d4d81611a31565b8114611d5857600080fd5b50565b600081359050611d6a81611d44565b92915050565b600060208284031215611d8657611d8561189d565b5b6000611d9484828501611d5b565b91505092915050565b7f4e487b7100000000000000000000000000000000000000000000000000000000600052602260045260246000fd5b60006002820490506001821680611de457607f821691505b60208210811415611df857611df7611d9d565b5b50919050565b7f4f776e61626c653a2063616c6c6572206973206e6f7420746865206f776e6572600082015250565b6000611e34602083611924565b9150611e3f82611dfe565b602082019050919050565b60006020820190508181036000830152611e6381611e27565b9050919050565b7f4f776e657220686173206e6f742062616c616e636520746f207769746864726160008201527f7700000000000000000000000000000000000000000000000000000000000000602082015250565b6000611ec6602183611924565b9150611ed182611e6a565b604082019050919050565b60006020820190508181036000830152611ef581611eb9565b9050919050565b600081905092915050565b50565b6000611f17600083611efc565b9150611f2282611f07565b600082019050919050565b6000611f3882611f0a565b9150819050919050565b7f4661696c656420746f2073656e6420757365722062616c616e6365206261636b60008201527f20746f20746865206f776e657200000000000000000000000000000000000000602082015250565b6000611f9e602d83611924565b9150611fa982611f42565b604082019050919050565b60006020820190508181036000830152611fcd81611f91565b9050919050565b7f4e487b7100000000000000000000000000000000000000000000000000000000600052601160045260246000fd5b600061200e826118a7565b91507fffffffffffffffffffffffffffffffffffffffffffffffffffffffffffffffff82141561204157612040611fd4565b5b600182019050919050565b600060a082019050612061600083018861190a565b81810360208301526120738187611979565b9050612082604083018661190a565b61208f6060830185611a43565b61209c6080830184611a5e565b9695505050505050565b60006120b1826118a7565b915060008214156120c5576120c4611fd4565b5b600182039050919050565b6000815190506120df816118b1565b92915050565b6000602082840312156120fb576120fa61189d565b5b6000612109848285016120d0565b91505092915050565b7f496e73756666696369656e742062616c616e6365000000000000000000000000600082015250565b6000612148601483611924565b915061215382612112565b602082019050919050565b600060208201905081810360008301526121778161213b565b9050919050565b600061218982611cf6565b9050919050565b6121998161217e565b82525050565b60006060820190506121b46000830186611a43565b6121c16020830185612190565b6121ce604083018461190a565b949350505050565b6121df81611a52565b81146121ea57600080fd5b50565b6000815190506121fc816121d6565b92915050565b6000602082840312156122185761221761189d565b5b6000612226848285016121ed565b91505092915050565b7f5075726368617365206661696c65640000000000000000000000000000000000600082015250565b6000612265600f83611924565b91506122708261222f565b602082019050919050565b6000602082019050818103600083015261229481612258565b9050919050565b60006122a6826118a7565b91506122b1836118a7565b9250817fffffffffffffffffffffffffffffffffffffffffffffffffffffffffffffffff04831182151516156122ea576122e9611fd4565b5b828202905092915050565b600060408201905061230a6000830185611a43565b612317602083018461190a565b9392505050565b60006080820190506123336000830187611a43565b6123406020830186611a43565b61234d604083018561190a565b61235a606083018461190a565b95945050505050565b7f4f776e61626c653a206e6577206f776e657220697320746865207a65726f206160008201527f6464726573730000000000000000000000000000000000000000000000000000602082015250565b60006123bf602683611924565b91506123ca82612363565b604082019050919050565b600060208201905081810360008301526123ee816123b2565b905091905056fea26469706673582212205e54bbe5f92854d660ae2d62194b2a9e2f97a70f173ce750167358071070e05264736f6c634300080a0033",
  "immutableReferences": {},
  "source": "// SPDX-License-Identifier: MIT\npragma solidity >=0.7.0 <0.9.0;\nimport \"./Token.sol\";\nimport \"@openzeppelin/contracts/access/Ownable.sol\";\n\n\ncontract FoodVendor is Ownable{   \n  uint public foodCount = 0;\n  uint public rate = 100;\n  ERC20 public foodvendortoken;\n\n  mapping(uint => Food) public foods;\n\n  struct Food {\n      uint id;\n      string name;\n      uint price;\n      address payable owner;\n      address buyer;\n      bool purchased;\n  }\n\n\n  event TokensPurchased(\n    address buyer,\n    address foodvendortoken,\n    uint amount,\n    uint rate\n  );\n  \n  event foodCreated(\n      uint id,\n      string name,\n      uint price,\n      address owner,\n      bool purchased\n  );\n  \n  event foodPurchased(\n      uint id,\n      string name,\n      uint price,\n      address payable owner,\n      address buyer,\n      bool purchased\n  );\n  \n  constructor (address _foodvendortoken){\n  foodvendortoken = ERC20(_foodvendortoken);\n    \n  }\n\n\n\n  function buyTokens() public payable {\n    // Calculate the number of tokens to buy\n    uint tokenAmount = msg.value * rate;\n\n    // Require that FoodVendor has enough tokens\n    require(foodvendortoken.balanceOf(address(this)) >= tokenAmount);\n\n    // Transfer tokens to the user\n    foodvendortoken.transfer(msg.sender, tokenAmount);\n\n    // Emit an event\n    emit TokensPurchased(msg.sender, address(foodvendortoken), tokenAmount, rate);\n  }\n\n    \n  function createFood(string memory _name, uint _price, uint _qty) public onlyOwner{\n    //valid name\n    require(bytes(_name).length > 0);\n    \n    //valid price\n    require(_price > 0);\n    \n    //increment food foodCount\n    require(_qty > 0);\n    \n    for(uint i=0; i < _qty; i++){\n      foodCount ++;\n      \n      //create food\n      foods[foodCount].id = foodCount;\n      foods[foodCount].name = _name;\n      foods[foodCount].price =  _price;\n      foods[foodCount].owner = payable(msg.sender);\n      foods[foodCount].purchased = false;\n      \n      emit foodCreated(foodCount, _name, _price, msg.sender, false);\n    }\n  }\n  \n  function purchaseFood(uint _id) public payable{\n    //fetch the food\n    Food memory _food = foods[ _id];\n    \n    //check id validity\n    require(_food.id > 0 && _food.id <= foodCount);\n    \n    //require enough balance\n    require(foodvendortoken.balanceOf(msg.sender) > _food.price, \"Insufficient balance\");\n    \n    //require food not purchased\n    require(!_food.purchased);\n\n     //transfer ownership to buyer\n    _food.buyer = msg.sender;\n    \n    //require seller not equal buyer\n    require(_food.owner != _food.buyer);\n    \n   \n    \n    //mark as purchased\n    _food.purchased = true;\n    \n    //update food\n    foods[ _id] = _food;\n    \n    //pay the seller by sending foodvendortoken\n    \n    require(foodvendortoken.transferFrom(msg.sender, _food.owner, _food.price), 'Purchase failed');\n    \n    emit foodPurchased(foodCount, _food.name, _food.price, _food.owner, msg.sender, true);         \n  }\n  \n  function removeFood(uint _id) public onlyOwner returns(bool){\n    //fetch the  food\n    Food memory _food = foods[ _id];\n    \n    //require food not purchased\n    require(!_food.purchased);\n    \n    delete foods[ _id];\n    \n    foodCount --;\n\n    return true;\n  } \n  \n  function checkFoodStatus(uint _id) public view returns(bool){\n    //fetch the foods\n    Food memory _food = foods[ _id];\n    \n    return _food.purchased;\n  }\n  \n  function getFoodInfo(uint _id) public view returns(uint, string memory, uint){\n    Food memory _food = foods[ _id];\n    \n    return(_food.id, _food.name, _food.price);\n  }\n\n  function withdraw() public onlyOwner {\n    uint256 ownerBalance = address(this).balance;\n    require(ownerBalance > 0, \"Owner has not balance to withdraw\");\n\n    (bool sent,) = msg.sender.call{value: address(this).balance}(\"\");\n    require(sent, \"Failed to send user balance back to the owner\");\n  }\n  \n}\n",
  "sourcePath": "/home/hussain/projects/FoodVendor_Contract/contracts/FoodVendor.sol",
  "compiler": {
    "name": "solc",
    "version": "0.8.10+commit.fc410830.Emscripten.clang"
  },
  "schemaVersion": "3.4.3",
  "updatedAt": "2021-12-20T13:44:15.100Z",
  "devdoc": {
    "kind": "dev",
    "methods": {
      "owner()": {
        "details": "Returns the address of the current owner."
      },
      "renounceOwnership()": {
        "details": "Leaves the contract without owner. It will not be possible to call `onlyOwner` functions anymore. Can only be called by the current owner. NOTE: Renouncing ownership will leave the contract without an owner, thereby removing any functionality that is only available to the owner."
      },
      "transferOwnership(address)": {
        "details": "Transfers ownership of the contract to a new account (`newOwner`). Can only be called by the current owner."
      }
    },
    "version": 1
  },
  "userdoc": {
    "kind": "user",
    "methods": {},
    "version": 1
  }
}