{
  "contractName": "FoodVendor",
  "abi": [
    {
      "inputs": [
        {
          "internalType": "address",
          "name": "_foodvendortoken",
          "type": "address"
        }
      ],
      "stateMutability": "nonpayable",
      "type": "constructor"
    },
    {
      "anonymous": false,
      "inputs": [
        {
          "indexed": true,
          "internalType": "address",
          "name": "previousOwner",
          "type": "address"
        },
        {
          "indexed": true,
          "internalType": "address",
          "name": "newOwner",
          "type": "address"
        }
      ],
      "name": "OwnershipTransferred",
      "type": "event"
    },
    {
      "anonymous": false,
      "inputs": [
        {
          "indexed": false,
          "internalType": "address",
          "name": "buyer",
          "type": "address"
        },
        {
          "indexed": false,
          "internalType": "address",
          "name": "foodvendortoken",
          "type": "address"
        },
        {
          "indexed": false,
          "internalType": "uint256",
          "name": "amount",
          "type": "uint256"
        },
        {
          "indexed": false,
          "internalType": "uint256",
          "name": "rate",
          "type": "uint256"
        }
      ],
      "name": "TokensPurchased",
      "type": "event"
    },
    {
      "anonymous": false,
      "inputs": [
        {
          "indexed": false,
          "internalType": "uint256",
          "name": "id",
          "type": "uint256"
        },
        {
          "indexed": false,
          "internalType": "string",
          "name": "name",
          "type": "string"
        },
        {
          "indexed": false,
          "internalType": "uint256",
          "name": "price",
          "type": "uint256"
        },
        {
          "indexed": false,
          "internalType": "address",
          "name": "owner",
          "type": "address"
        },
        {
          "indexed": false,
          "internalType": "bool",
          "name": "purchased",
          "type": "bool"
        }
      ],
      "name": "foodCreated",
      "type": "event"
    },
    {
      "anonymous": false,
      "inputs": [
        {
          "indexed": false,
          "internalType": "uint256",
          "name": "id",
          "type": "uint256"
        },
        {
          "indexed": false,
          "internalType": "string",
          "name": "name",
          "type": "string"
        },
        {
          "indexed": false,
          "internalType": "uint256",
          "name": "price",
          "type": "uint256"
        },
        {
          "indexed": false,
          "internalType": "address payable",
          "name": "owner",
          "type": "address"
        },
        {
          "indexed": false,
          "internalType": "address",
          "name": "buyer",
          "type": "address"
        },
        {
          "indexed": false,
          "internalType": "bool",
          "name": "purchased",
          "type": "bool"
        }
      ],
      "name": "foodPurchased",
      "type": "event"
    },
    {
      "inputs": [],
      "name": "foodCount",
      "outputs": [
        {
          "internalType": "uint256",
          "name": "",
          "type": "uint256"
        }
      ],
      "stateMutability": "view",
      "type": "function"
    },
    {
      "inputs": [
        {
          "internalType": "uint256",
          "name": "",
          "type": "uint256"
        }
      ],
      "name": "foods",
      "outputs": [
        {
          "internalType": "uint256",
          "name": "id",
          "type": "uint256"
        },
        {
          "internalType": "string",
          "name": "name",
          "type": "string"
        },
        {
          "internalType": "uint256",
          "name": "price",
          "type": "uint256"
        },
        {
          "internalType": "address payable",
          "name": "owner",
          "type": "address"
        },
        {
          "internalType": "address",
          "name": "buyer",
          "type": "address"
        },
        {
          "internalType": "bool",
          "name": "purchased",
          "type": "bool"
        }
      ],
      "stateMutability": "view",
      "type": "function"
    },
    {
      "inputs": [],
      "name": "foodvendortoken",
      "outputs": [
        {
          "internalType": "contract ERC20",
          "name": "",
          "type": "address"
        }
      ],
      "stateMutability": "view",
      "type": "function"
    },
    {
      "inputs": [],
      "name": "owner",
      "outputs": [
        {
          "internalType": "address",
          "name": "",
          "type": "address"
        }
      ],
      "stateMutability": "view",
      "type": "function"
    },
    {
      "inputs": [],
      "name": "rate",
      "outputs": [
        {
          "internalType": "uint256",
          "name": "",
          "type": "uint256"
        }
      ],
      "stateMutability": "view",
      "type": "function"
    },
    {
      "inputs": [],
      "name": "renounceOwnership",
      "outputs": [],
      "stateMutability": "nonpayable",
      "type": "function"
    },
    {
      "inputs": [
        {
          "internalType": "address",
          "name": "newOwner",
          "type": "address"
        }
      ],
      "name": "transferOwnership",
      "outputs": [],
      "stateMutability": "nonpayable",
      "type": "function"
    },
    {
      "inputs": [],
      "name": "buyTokens",
      "outputs": [],
      "stateMutability": "payable",
      "type": "function"
    },
    {
      "inputs": [
        {
          "internalType": "string",
          "name": "_name",
          "type": "string"
        },
        {
          "internalType": "uint256",
          "name": "_price",
          "type": "uint256"
        },
        {
          "internalType": "uint256",
          "name": "_qty",
          "type": "uint256"
        }
      ],
      "name": "createFood",
      "outputs": [],
      "stateMutability": "nonpayable",
      "type": "function"
    },
    {
      "inputs": [
        {
          "internalType": "uint256",
          "name": "_id",
          "type": "uint256"
        }
      ],
      "name": "purchaseFood",
      "outputs": [],
      "stateMutability": "payable",
      "type": "function"
    },
    {
      "inputs": [
        {
          "internalType": "uint256",
          "name": "_id",
          "type": "uint256"
        }
      ],
      "name": "removeFood",
      "outputs": [
        {
          "internalType": "bool",
          "name": "",
          "type": "bool"
        }
      ],
      "stateMutability": "nonpayable",
      "type": "function"
    },
    {
      "inputs": [
        {
          "internalType": "uint256",
          "name": "_id",
          "type": "uint256"
        }
      ],
      "name": "checkFoodStatus",
      "outputs": [
        {
          "internalType": "bool",
          "name": "",
          "type": "bool"
        }
      ],
      "stateMutability": "view",
      "type": "function"
    },
    {
      "inputs": [
        {
          "internalType": "uint256",
          "name": "_id",
          "type": "uint256"
        }
      ],
      "name": "getFoodInfo",
      "outputs": [
        {
          "internalType": "uint256",
          "name": "",
          "type": "uint256"
        },
        {
          "internalType": "string",
          "name": "",
          "type": "string"
        },
        {
          "internalType": "uint256",
          "name": "",
          "type": "uint256"
        }
      ],
      "stateMutability": "view",
      "type": "function"
    },
    {
      "inputs": [],
      "name": "withdraw",
      "outputs": [],
      "stateMutability": "nonpayable",
      "type": "function"
    }
  ],
  "bytecode": "0x6080604052600060015560646002553480156200001b57600080fd5b5060405162002719380380620027198339818101604052810190620000419190620001f1565b620000736200005e620000bb640100000000026401000000009004565b620000c3640100000000026401000000009004565b80600360006101000a81548173ffffffffffffffffffffffffffffffffffffffff021916908373ffffffffffffffffffffffffffffffffffffffff1602179055505062000223565b600033905090565b60008060009054906101000a900473ffffffffffffffffffffffffffffffffffffffff169050816000806101000a81548173ffffffffffffffffffffffffffffffffffffffff021916908373ffffffffffffffffffffffffffffffffffffffff1602179055508173ffffffffffffffffffffffffffffffffffffffff168173ffffffffffffffffffffffffffffffffffffffff167f8be0079c531659141344cd1fd0a4f28419497f9722a3daafe3b4186f6b6457e060405160405180910390a35050565b600080fd5b600073ffffffffffffffffffffffffffffffffffffffff82169050919050565b6000620001b9826200018c565b9050919050565b620001cb81620001ac565b8114620001d757600080fd5b50565b600081519050620001eb81620001c0565b92915050565b6000602082840312156200020a576200020962000187565b5b60006200021a84828501620001da565b91505092915050565b6124e680620002336000396000f3fe6080604052600436106100fa576000357c01000000000000000000000000000000000000000000000000000000009004806377208d2c1161009c578063b08f258b11610076578063b08f258b146102d2578063d0febe4c146102ee578063e95f4dbf146102f8578063f2fde38b14610323576100fa565b806377208d2c1461022d5780638da5cb5b1461026a5780639054784c14610295576100fa565b80633ccfd60b116100d85780633ccfd60b146101ab5780636968411b146101c2578063715018a6146101ed57806371acea0214610204576100fa565b80630a8eb8bc146100ff57806314d3f10e1461013e5780632c4e722e14610180575b600080fd5b34801561010b57600080fd5b5061012660048036038101906101219190611998565b61034c565b60405161013593929190611a6d565b60405180910390f35b34801561014a57600080fd5b5061016560048036038101906101609190611998565b6104fd565b60405161017796959493929190611b28565b60405180910390f35b34801561018c57600080fd5b5061019561060e565b6040516101a29190611b90565b60405180910390f35b3480156101b757600080fd5b506101c0610614565b005b3480156101ce57600080fd5b506101d76107b6565b6040516101e49190611b90565b60405180910390f35b3480156101f957600080fd5b506102026107bc565b005b34801561021057600080fd5b5061022b60048036038101906102269190611ce0565b610844565b005b34801561023957600080fd5b50610254600480360381019061024f9190611998565b610a57565b6040516102619190611d4f565b60405180910390f35b34801561027657600080fd5b5061027f610d2d565b60405161028c9190611d6a565b60405180910390f35b3480156102a157600080fd5b506102bc60048036038101906102b79190611998565b610d56565b6040516102c99190611d4f565b60405180910390f35b6102ec60048036038101906102e79190611998565b610ef3565b005b6102f661148a565b005b34801561030457600080fd5b5061030d611681565b60405161031a9190611de4565b60405180910390f35b34801561032f57600080fd5b5061034a60048036038101906103459190611e2b565b6116a7565b005b60006060600080600460008681526020019081526020016000206040518060c00160405290816000820154815260200160018201805461038b90611e87565b80601f01602080910402602001604051908101604052809291908181526020018280546103b790611e87565b80156104045780601f106103d957610100808354040283529160200191610404565b820191906000526020600020905b8154815290600101906020018083116103e757829003601f168201915b50505050508152602001600282015481526020016003820160009054906101000a900473ffffffffffffffffffffffffffffffffffffffff1673ffffffffffffffffffffffffffffffffffffffff1673ffffffffffffffffffffffffffffffffffffffff1681526020016004820160009054906101000a900473ffffffffffffffffffffffffffffffffffffffff1673ffffffffffffffffffffffffffffffffffffffff1673ffffffffffffffffffffffffffffffffffffffff1681526020016004820160149054906101000a900460ff1615151515815250509050806000015181602001518260400151935093509350509193909250565b600460205280600052604060002060009150905080600001549080600101805461052690611e87565b80601f016020809104026020016040519081016040528092919081815260200182805461055290611e87565b801561059f5780601f106105745761010080835404028352916020019161059f565b820191906000526020600020905b81548152906001019060200180831161058257829003601f168201915b5050505050908060020154908060030160009054906101000a900473ffffffffffffffffffffffffffffffffffffffff16908060040160009054906101000a900473ffffffffffffffffffffffffffffffffffffffff16908060040160149054906101000a900460ff16905086565b60025481565b61061c61179f565b73ffffffffffffffffffffffffffffffffffffffff1661063a610d2d565b73ffffffffffffffffffffffffffffffffffffffff1614610690576040517f08c379a000000000000000000000000000000000000000000000000000000000815260040161068790611f05565b60405180910390fd5b60003073ffffffffffffffffffffffffffffffffffffffff16319050600081116106ef576040517f08c379a00000000000000000000000000000000000000000000000000000000081526004016106e690611f97565b60405180910390fd5b60003373ffffffffffffffffffffffffffffffffffffffff163073ffffffffffffffffffffffffffffffffffffffff163160405161072c90611fe8565b60006040518083038185875af1925050503d8060008114610769576040519150601f19603f3d011682016040523d82523d6000602084013e61076e565b606091505b50509050806107b2576040517f08c379a00000000000000000000000000000000000000000000000000000000081526004016107a99061206f565b60405180910390fd5b5050565b60015481565b6107c461179f565b73ffffffffffffffffffffffffffffffffffffffff166107e2610d2d565b73ffffffffffffffffffffffffffffffffffffffff1614610838576040517f08c379a000000000000000000000000000000000000000000000000000000000815260040161082f90611f05565b60405180910390fd5b61084260006117a7565b565b61084c61179f565b73ffffffffffffffffffffffffffffffffffffffff1661086a610d2d565b73ffffffffffffffffffffffffffffffffffffffff16146108c0576040517f08c379a00000000000000000000000000000000000000000000000000000000081526004016108b790611f05565b60405180910390fd5b60008351116108ce57600080fd5b600082116108db57600080fd5b600081116108e857600080fd5b60005b81811015610a515760016000815480929190610906906120be565b91905055506001546004600060015481526020019081526020016000206000018190555083600460006001548152602001908152602001600020600101908051906020019061095692919061186b565b5082600460006001548152602001908152602001600020600201819055503360046000600154815260200190815260200160002060030160006101000a81548173ffffffffffffffffffffffffffffffffffffffff021916908373ffffffffffffffffffffffffffffffffffffffff160217905550600060046000600154815260200190815260200160002060040160146101000a81548160ff0219169083151502179055507f89b74cdb49a8dc63b7934fd206ddbb27da4334bc8d696790f76f634d893665476001548585336000604051610a36959493929190612107565b60405180910390a18080610a49906120be565b9150506108eb565b50505050565b6000610a6161179f565b73ffffffffffffffffffffffffffffffffffffffff16610a7f610d2d565b73ffffffffffffffffffffffffffffffffffffffff1614610ad5576040517f08c379a0000000000000000000000000000000000000000000000000000000008152600401610acc90611f05565b60405180910390fd5b6000600460008481526020019081526020016000206040518060c001604052908160008201548152602001600182018054610b0f90611e87565b80601f0160208091040260200160405190810160405280929190818152602001828054610b3b90611e87565b8015610b885780601f10610b5d57610100808354040283529160200191610b88565b820191906000526020600020905b815481529060010190602001808311610b6b57829003601f168201915b50505050508152602001600282015481526020016003820160009054906101000a900473ffffffffffffffffffffffffffffffffffffffff1673ffffffffffffffffffffffffffffffffffffffff1673ffffffffffffffffffffffffffffffffffffffff1681526020016004820160009054906101000a900473ffffffffffffffffffffffffffffffffffffffff1673ffffffffffffffffffffffffffffffffffffffff1673ffffffffffffffffffffffffffffffffffffffff1681526020016004820160149054906101000a900460ff16151515158152505090508060a0015115610c7357600080fd5b60046000848152602001908152602001600020600080820160009055600182016000610c9f91906118f1565b60028201600090556003820160006101000a81549073ffffffffffffffffffffffffffffffffffffffff02191690556004820160006101000a81549073ffffffffffffffffffffffffffffffffffffffff02191690556004820160146101000a81549060ff0219169055505060016000815480929190610d1e90612161565b91905055506001915050919050565b60008060009054906101000a900473ffffffffffffffffffffffffffffffffffffffff16905090565b600080600460008481526020019081526020016000206040518060c001604052908160008201548152602001600182018054610d9190611e87565b80601f0160208091040260200160405190810160405280929190818152602001828054610dbd90611e87565b8015610e0a5780601f10610ddf57610100808354040283529160200191610e0a565b820191906000526020600020905b815481529060010190602001808311610ded57829003601f168201915b50505050508152602001600282015481526020016003820160009054906101000a900473ffffffffffffffffffffffffffffffffffffffff1673ffffffffffffffffffffffffffffffffffffffff1673ffffffffffffffffffffffffffffffffffffffff1681526020016004820160009054906101000a900473ffffffffffffffffffffffffffffffffffffffff1673ffffffffffffffffffffffffffffffffffffffff1673ffffffffffffffffffffffffffffffffffffffff1681526020016004820160149054906101000a900460ff16151515158152505090508060a00151915050919050565b6000600460008381526020019081526020016000206040518060c001604052908160008201548152602001600182018054610f2d90611e87565b80601f0160208091040260200160405190810160405280929190818152602001828054610f5990611e87565b8015610fa65780601f10610f7b57610100808354040283529160200191610fa6565b820191906000526020600020905b815481529060010190602001808311610f8957829003601f168201915b50505050508152602001600282015481526020016003820160009054906101000a900473ffffffffffffffffffffffffffffffffffffffff1673ffffffffffffffffffffffffffffffffffffffff1673ffffffffffffffffffffffffffffffffffffffff1681526020016004820160009054906101000a900473ffffffffffffffffffffffffffffffffffffffff1673ffffffffffffffffffffffffffffffffffffffff1673ffffffffffffffffffffffffffffffffffffffff1681526020016004820160149054906101000a900460ff16151515158152505090506000816000015111801561109c5750600154816000015111155b6110a557600080fd5b8060400151600360009054906101000a900473ffffffffffffffffffffffffffffffffffffffff1673ffffffffffffffffffffffffffffffffffffffff166370a08231336040518263ffffffff167c01000000000000000000000000000000000000000000000000000000000281526004016111219190611d6a565b602060405180830381865afa15801561113e573d6000803e3d6000fd5b505050506040513d601f19601f8201168201806040525081019061116291906121a0565b116111a2576040517f08c379a000000000000000000000000000000000000000000000000000000000815260040161119990612219565b60405180910390fd5b8060a00151156111b157600080fd5b33816080019073ffffffffffffffffffffffffffffffffffffffff16908173ffffffffffffffffffffffffffffffffffffffff1681525050806080015173ffffffffffffffffffffffffffffffffffffffff16816060015173ffffffffffffffffffffffffffffffffffffffff16141561122a57600080fd5b60018160a0019015159081151581525050806004600084815260200190815260200160002060008201518160000155602082015181600101908051906020019061127592919061186b565b506040820151816002015560608201518160030160006101000a81548173ffffffffffffffffffffffffffffffffffffffff021916908373ffffffffffffffffffffffffffffffffffffffff16021790555060808201518160040160006101000a81548173ffffffffffffffffffffffffffffffffffffffff021916908373ffffffffffffffffffffffffffffffffffffffff16021790555060a08201518160040160146101000a81548160ff021916908315150217905550905050600360009054906101000a900473ffffffffffffffffffffffffffffffffffffffff1673ffffffffffffffffffffffffffffffffffffffff166323b872dd33836060015184604001516040518463ffffffff167c01000000000000000000000000000000000000000000000000000000000281526004016113b49392919061225a565b6020604051808303816000875af11580156113d3573d6000803e3d6000fd5b505050506040513d601f19601f820116820180604052508101906113f791906122bd565b611436576040517f08c379a000000000000000000000000000000000000000000000000000000000815260040161142d90612336565b60405180910390fd5b7f0d886fcedfff2dd0e2bd70de505c33ad878d6d070a86d180797b930af7c1173b60015482602001518360400151846060015133600160405161147e96959493929190611b28565b60405180910390a15050565b60006002543461149a9190612356565b905080600360009054906101000a900473ffffffffffffffffffffffffffffffffffffffff1673ffffffffffffffffffffffffffffffffffffffff166370a08231306040518263ffffffff167c01000000000000000000000000000000000000000000000000000000000281526004016115149190611d6a565b602060405180830381865afa158015611531573d6000803e3d6000fd5b505050506040513d601f19601f8201168201806040525081019061155591906121a0565b101561156057600080fd5b600360009054906101000a900473ffffffffffffffffffffffffffffffffffffffff1673ffffffffffffffffffffffffffffffffffffffff1663a9059cbb33836040518363ffffffff167c01000000000000000000000000000000000000000000000000000000000281526004016115d99291906123b0565b6020604051808303816000875af11580156115f8573d6000803e3d6000fd5b505050506040513d601f19601f8201168201806040525081019061161c91906122bd565b507f6faf93231a456e552dbc9961f58d9713ee4f2e69d15f1975b050ef0911053a7b33600360009054906101000a900473ffffffffffffffffffffffffffffffffffffffff168360025460405161167694939291906123d9565b60405180910390a150565b600360009054906101000a900473ffffffffffffffffffffffffffffffffffffffff1681565b6116af61179f565b73ffffffffffffffffffffffffffffffffffffffff166116cd610d2d565b73ffffffffffffffffffffffffffffffffffffffff1614611723576040517f08c379a000000000000000000000000000000000000000000000000000000000815260040161171a90611f05565b60405180910390fd5b600073ffffffffffffffffffffffffffffffffffffffff168173ffffffffffffffffffffffffffffffffffffffff161415611793576040517f08c379a000000000000000000000000000000000000000000000000000000000815260040161178a90612490565b60405180910390fd5b61179c816117a7565b50565b600033905090565b60008060009054906101000a900473ffffffffffffffffffffffffffffffffffffffff169050816000806101000a81548173ffffffffffffffffffffffffffffffffffffffff021916908373ffffffffffffffffffffffffffffffffffffffff1602179055508173ffffffffffffffffffffffffffffffffffffffff168173ffffffffffffffffffffffffffffffffffffffff167f8be0079c531659141344cd1fd0a4f28419497f9722a3daafe3b4186f6b6457e060405160405180910390a35050565b82805461187790611e87565b90600052602060002090601f01602090048101928261189957600085556118e0565b82601f106118b257805160ff19168380011785556118e0565b828001600101855582156118e0579182015b828111156118df5782518255916020019190600101906118c4565b5b5090506118ed9190611931565b5090565b5080546118fd90611e87565b6000825580601f1061190f575061192e565b601f01602090049060005260206000209081019061192d9190611931565b5b50565b5b8082111561194a576000816000905550600101611932565b5090565b6000604051905090565b600080fd5b600080fd5b6000819050919050565b61197581611962565b811461198057600080fd5b50565b6000813590506119928161196c565b92915050565b6000602082840312156119ae576119ad611958565b5b60006119bc84828501611983565b91505092915050565b6119ce81611962565b82525050565b600081519050919050565b600082825260208201905092915050565b60005b83811015611a0e5780820151818401526020810190506119f3565b83811115611a1d576000848401525b50505050565b6000601f19601f8301169050919050565b6000611a3f826119d4565b611a4981856119df565b9350611a598185602086016119f0565b611a6281611a23565b840191505092915050565b6000606082019050611a8260008301866119c5565b8181036020830152611a948185611a34565b9050611aa360408301846119c5565b949350505050565b600073ffffffffffffffffffffffffffffffffffffffff82169050919050565b6000611ad682611aab565b9050919050565b611ae681611acb565b82525050565b6000611af782611aab565b9050919050565b611b0781611aec565b82525050565b60008115159050919050565b611b2281611b0d565b82525050565b600060c082019050611b3d60008301896119c5565b8181036020830152611b4f8188611a34565b9050611b5e60408301876119c5565b611b6b6060830186611add565b611b786080830185611afe565b611b8560a0830184611b19565b979650505050505050565b6000602082019050611ba560008301846119c5565b92915050565b600080fd5b600080fd5b7f4e487b7100000000000000000000000000000000000000000000000000000000600052604160045260246000fd5b611bed82611a23565b810181811067ffffffffffffffff82111715611c0c57611c0b611bb5565b5b80604052505050565b6000611c1f61194e565b9050611c2b8282611be4565b919050565b600067ffffffffffffffff821115611c4b57611c4a611bb5565b5b611c5482611a23565b9050602081019050919050565b82818337600083830152505050565b6000611c83611c7e84611c30565b611c15565b905082815260208101848484011115611c9f57611c9e611bb0565b5b611caa848285611c61565b509392505050565b600082601f830112611cc757611cc6611bab565b5b8135611cd7848260208601611c70565b91505092915050565b600080600060608486031215611cf957611cf8611958565b5b600084013567ffffffffffffffff811115611d1757611d1661195d565b5b611d2386828701611cb2565b9350506020611d3486828701611983565b9250506040611d4586828701611983565b9150509250925092565b6000602082019050611d646000830184611b19565b92915050565b6000602082019050611d7f6000830184611afe565b92915050565b6000819050919050565b6000611daa611da5611da084611aab565b611d85565b611aab565b9050919050565b6000611dbc82611d8f565b9050919050565b6000611dce82611db1565b9050919050565b611dde81611dc3565b82525050565b6000602082019050611df96000830184611dd5565b92915050565b611e0881611aec565b8114611e1357600080fd5b50565b600081359050611e2581611dff565b92915050565b600060208284031215611e4157611e40611958565b5b6000611e4f84828501611e16565b91505092915050565b7f4e487b7100000000000000000000000000000000000000000000000000000000600052602260045260246000fd5b60006002820490506001821680611e9f57607f821691505b60208210811415611eb357611eb2611e58565b5b50919050565b7f4f776e61626c653a2063616c6c6572206973206e6f7420746865206f776e6572600082015250565b6000611eef6020836119df565b9150611efa82611eb9565b602082019050919050565b60006020820190508181036000830152611f1e81611ee2565b9050919050565b7f4f776e657220686173206e6f742062616c616e636520746f207769746864726160008201527f7700000000000000000000000000000000000000000000000000000000000000602082015250565b6000611f816021836119df565b9150611f8c82611f25565b604082019050919050565b60006020820190508181036000830152611fb081611f74565b9050919050565b600081905092915050565b50565b6000611fd2600083611fb7565b9150611fdd82611fc2565b600082019050919050565b6000611ff382611fc5565b9150819050919050565b7f4661696c656420746f2073656e6420757365722062616c616e6365206261636b60008201527f20746f20746865206f776e657200000000000000000000000000000000000000602082015250565b6000612059602d836119df565b915061206482611ffd565b604082019050919050565b600060208201905081810360008301526120888161204c565b9050919050565b7f4e487b7100000000000000000000000000000000000000000000000000000000600052601160045260246000fd5b60006120c982611962565b91507fffffffffffffffffffffffffffffffffffffffffffffffffffffffffffffffff8214156120fc576120fb61208f565b5b600182019050919050565b600060a08201905061211c60008301886119c5565b818103602083015261212e8187611a34565b905061213d60408301866119c5565b61214a6060830185611afe565b6121576080830184611b19565b9695505050505050565b600061216c82611962565b915060008214156121805761217f61208f565b5b600182039050919050565b60008151905061219a8161196c565b92915050565b6000602082840312156121b6576121b5611958565b5b60006121c48482850161218b565b91505092915050565b7f496e73756666696369656e742062616c616e6365000000000000000000000000600082015250565b60006122036014836119df565b915061220e826121cd565b602082019050919050565b60006020820190508181036000830152612232816121f6565b9050919050565b600061224482611db1565b9050919050565b61225481612239565b82525050565b600060608201905061226f6000830186611afe565b61227c602083018561224b565b61228960408301846119c5565b949350505050565b61229a81611b0d565b81146122a557600080fd5b50565b6000815190506122b781612291565b92915050565b6000602082840312156122d3576122d2611958565b5b60006122e1848285016122a8565b91505092915050565b7f5075726368617365206661696c65640000000000000000000000000000000000600082015250565b6000612320600f836119df565b915061232b826122ea565b602082019050919050565b6000602082019050818103600083015261234f81612313565b9050919050565b600061236182611962565b915061236c83611962565b9250817fffffffffffffffffffffffffffffffffffffffffffffffffffffffffffffffff04831182151516156123a5576123a461208f565b5b828202905092915050565b60006040820190506123c56000830185611afe565b6123d260208301846119c5565b9392505050565b60006080820190506123ee6000830187611afe565b6123fb6020830186611afe565b61240860408301856119c5565b61241560608301846119c5565b95945050505050565b7f4f776e61626c653a206e6577206f776e657220697320746865207a65726f206160008201527f6464726573730000000000000000000000000000000000000000000000000000602082015250565b600061247a6026836119df565b91506124858261241e565b604082019050919050565b600060208201905081810360008301526124a98161246d565b905091905056fea26469706673582212206dc638b791e3eb83c3a4db1ecd21959c7bfee14976d9270882652768adc7c95964736f6c634300080a0033",
  "immutableReferences": {},
  "source": "// SPDX-License-Identifier: MIT\npragma solidity 0.8.10;\nimport \"./Token.sol\";\nimport \"../node_modules/@openzeppelin/contracts/access/Ownable.sol\";\n\n\ncontract FoodVendor is Ownable{   \n  uint public foodCount = 0;\n  uint public rate = 100;\n  ERC20 public foodvendortoken;\n\n  mapping(uint => Food) public foods;\n\n  struct Food {\n      uint id;\n      string name;\n      uint price;\n      address payable owner;\n      address buyer;\n      bool purchased;\n  }\n\n\n  event TokensPurchased(\n    address buyer,\n    address foodvendortoken,\n    uint amount,\n    uint rate\n  );\n  \n  event foodCreated(\n      uint id,\n      string name,\n      uint price,\n      address owner,\n      bool purchased\n  );\n  \n  event foodPurchased(\n      uint id,\n      string name,\n      uint price,\n      address payable owner,\n      address buyer,\n      bool purchased\n  );\n  \n  constructor (address _foodvendortoken){\n  foodvendortoken = ERC20(_foodvendortoken);\n    \n  }\n\n\n\n  function buyTokens() public payable {\n    // Calculate the number of tokens to buy\n    uint tokenAmount = msg.value * rate;\n\n    // Require that FoodVendor has enough tokens\n    require(foodvendortoken.balanceOf(address(this)) >= tokenAmount);\n\n    // Transfer tokens to the user\n    foodvendortoken.transfer(msg.sender, tokenAmount);\n\n    // Emit an event\n    emit TokensPurchased(msg.sender, address(foodvendortoken), tokenAmount, rate);\n  }\n\n    \n  function createFood(string memory _name, uint _price, uint _qty) public onlyOwner{\n    //valid name\n    require(bytes(_name).length > 0);\n    \n    //valid price\n    require(_price > 0);\n    \n    //increment food foodCount\n    require(_qty > 0);\n    \n    for(uint i=0; i < _qty; i++){\n      foodCount ++;\n      \n      //create food\n      foods[foodCount].id = foodCount;\n      foods[foodCount].name = _name;\n      foods[foodCount].price =  _price;\n      foods[foodCount].owner = payable(msg.sender);\n      foods[foodCount].purchased = false;\n      \n      emit foodCreated(foodCount, _name, _price, msg.sender, false);\n    }\n  }\n  \n  function purchaseFood(uint _id) public payable{\n    //fetch the food\n    Food memory _food = foods[ _id];\n    \n    //check id validity\n    require(_food.id > 0 && _food.id <= foodCount);\n    \n    //require enough balance\n    require(foodvendortoken.balanceOf(msg.sender) > _food.price, \"Insufficient balance\");\n    \n    //require food not purchased\n    require(!_food.purchased);\n\n     //transfer ownership to buyer\n    _food.buyer = msg.sender;\n    \n    //require seller not equal buyer\n    require(_food.owner != _food.buyer);\n    \n   \n    \n    //mark as purchased\n    _food.purchased = true;\n    \n    //update food\n    foods[ _id] = _food;\n    \n    //pay the seller by sending foodvendortoken\n    \n    require(foodvendortoken.transferFrom(msg.sender, _food.owner, _food.price), 'Purchase failed');\n    \n    emit foodPurchased(foodCount, _food.name, _food.price, _food.owner, msg.sender, true);         \n  }\n  \n  function removeFood(uint _id) public onlyOwner returns(bool){\n    //fetch the  food\n    Food memory _food = foods[ _id];\n    \n    //require food not purchased\n    require(!_food.purchased);\n    \n    delete foods[ _id];\n    \n    foodCount --;\n\n    return true;\n  } \n  \n  function checkFoodStatus(uint _id) public view returns(bool){\n    //fetch the foods\n    Food memory _food = foods[ _id];\n    \n    return _food.purchased;\n  }\n  \n  function getFoodInfo(uint _id) public view returns(uint, string memory, uint){\n    Food memory _food = foods[ _id];\n    \n    return(_food.id, _food.name, _food.price);\n  }\n\n  function withdraw() public onlyOwner {\n    uint256 ownerBalance = address(this).balance;\n    require(ownerBalance > 0, \"Owner has not balance to withdraw\");\n\n    (bool sent,) = msg.sender.call{value: address(this).balance}(\"\");\n    require(sent, \"Failed to send user balance back to the owner\");\n  }\n  \n}\n",
  "sourcePath": "/home/hussain/projects/FoodVendor_Contract/contracts/FoodVendor.sol",
  "compiler": {
    "name": "solc",
    "version": "0.8.10+commit.fc410830.Emscripten.clang"
  },
  "schemaVersion": "3.4.3",
  "updatedAt": "2021-12-25T03:11:07.215Z",
  "devdoc": {
    "kind": "dev",
    "methods": {
      "owner()": {
        "details": "Returns the address of the current owner."
      },
      "renounceOwnership()": {
        "details": "Leaves the contract without owner. It will not be possible to call `onlyOwner` functions anymore. Can only be called by the current owner. NOTE: Renouncing ownership will leave the contract without an owner, thereby removing any functionality that is only available to the owner."
      },
      "transferOwnership(address)": {
        "details": "Transfers ownership of the contract to a new account (`newOwner`). Can only be called by the current owner."
      }
    },
    "version": 1
  },
  "userdoc": {
    "kind": "user",
    "methods": {},
    "version": 1
  }
}